:020000040000FA
:100000000C9476020C949E020C949E020C949E0218
:100010000C949E020C949E020C949E020C949E02E0
:100020000C949E020C949E020C949E020C94341D1F
:100030000C949E020C94EB1F0C941D200C949E02B9
:100040000C949E020C949E020C949E020C941C1C18
:100050000C949E02494F533A20436865636B2053CA
:100060004420616E642070726573732061206B653B
:100070007920746F207265706561740D0A00494FB4
:10008000533A2043757272656E7420002020202040
:10009000202020202020202020202020200D000DA6
:1000A0000A507265737320435220746F206163633A
:1000B0006570742C2045534320746F2065786974F3
:1000C000206F7220616E79206F74686572206B6595
:1000D0007920746F206368616E67650020363A206E
:1000E0004368616E6765205A383020636C6F636BBC
:1000F00020737065656420282D3E0020353A206904
:100100004C6F6164000D0A20343A204175746F62AF
:100110006F6F740020333A204C6F6164204F53207E
:1001200066726F6D200020323A20466F727468004C
:1001300020313A2042617369630020303A204E6FCB
:10014000206368616E6765202800494F533A205349
:10015000656C65637420626F6F74206D6F646520D9
:100160006F722073797374656D20706172616D6553
:10017000746572733A00494F533A2043502F4D2013
:100180004175746F657865632069732000494F532A
:100190003A20466F756E6420475045204F70746951
:1001A0006F6E00494F533A205A383020636C6F63AA
:1001B0006B2073657420617420000D0A0A5A383070
:1001C0002D4D424332202D20413034303631380D10
:1001D0000A494F53202D20492F4F205375627379C0
:1001E0007374656D202D20533232303731382D52E3
:1001F0003234303632300D0A00FB013110FD21520D
:10020000FDCDC6FECD3EFFCDF4FD3EFFBC2010BDB2
:10021000200D21D9FDCDC6FE2188FDCDC6FE76E597
:1002200021D9FDCDC6FE2175FDCDC6FEE1CD4BFF2A
:10023000CD3EFFCD3EFFDB01FEFF20FAE9694C6FAA
:100240006164202D20496E74656C2D486578204CC2
:100250006F61646572202D205332303037313800A1
:100260005374617274696E6720416464726573735C
:100270003A20004C6F6164206572726F72202D20ED
:1002800053797374656D2068616C7465640057619F
:100290006974696E6720696E707574207374726515
:1002A000616D2E2E2E0053796E7461782065727206
:1002B0006F722100436865636B73756D20657272A0
:1002C0006F722100694C6F61643A2000416464726E
:1002D0006573732076696F6C6174696F6E2100F5C8
:1002E000D5C501FFFF21A3FDCDC6FECD3EFFCD72DA
:1002F000FFFE0D28F9FE0A28F5FE2028F1CD1AFF91
:10030000CD69FFFE3AC2A3FECDE1FE571E00CDBE71
:10031000FECDD6FE3EFFB82005B92002444D7CCD6F
:10032000BEFE7DCDBEFECDE1FECDBEFEFE01201E99
:10033000CDE1FECDBEFE7BA72866CD3EFF21D9FDD7
:10034000CDC6FE21C9FDCDC6FE01FFFF18527AA71A
:10035000282CCDE1FECDBEFEE5C5A701F0FCED42A7
:10036000C1E1DA8EFECD3EFF21D9FDCDC6FE21E1F1
:10037000FDCDC6FE01FFFF182777231518D0CDE16C
:10038000FECDBEFE7BA720B2CD3EFFC303FECD3E19
:10039000FF21D9FDCDC6FE21BBFDCDC6FE01FFFF6D
:1003A000CD3EFF6069C1D1F1C9C54F7B915F79C175
:1003B000C9F5E57EFE002806CD69FF2318F5E1F1B9
:1003C000C9F5CDE1FE67CDE1FE6FF1C9C5CDF4FE03
:1003D000CB07CB07CB07CB0747CDF4FEB0C1C9CDC8
:1003E00072FFCD1AFFCD06FF30F5CD23FFCD2EFFD6
:1003F000C9FE47D0FE3030023FC9FE3AD8FE413038
:10040000023FC937C9FE61D8FE7BD0E65FC9FE3A1C
:100410003802D607D630E60FC9F5E60FC630FE3AE9
:100420003802C607CD69FFF1C9F53E0DCD69FF3E23
:100430000ACD69FFF1C9E5F57CCD58FF7DCD58FFA8
:10044000F1E1C9F5C5470F0F0F0FCD2EFF78CD2E67
:10045000FFC1F1C9F53E01D301F1D300C9DB01FEB3
:10046000FFCA72FFC9000000020000000000000087
:10047000000504000700000000000000000000006C
:100480000000000000010204081020408001020466
:10049000081020408001020408102040800102045E
:1004A0000810204080020202020202020204040438
:1004B000040404040403030303030303030101010D
:1004C0000101010101000039003600330030000055
:1004D000003B0038003500320000003A003700349D
:1004E0000031000092041E1B4D209E0411241FBEEB
:1004F000CFE5D8E0DEBFCDBF14E0A0E6B0E0E6E493
:10050000FCE402C005900D92A830B107D9F726E0AF
:10051000A8E0B4E001C01D92A630B207E1F712E0F6
:10052000C5E7D2E004C02197FE010E942723C2370D
:10053000D107C9F70E94D5220C9416260C9400000E
:100540001F93CF93DF93EC01162F0E94CA25181733
:1005500039F0612FCE01DF91CF911F910C94D225FC
:10056000DF91CF911F9108950C94CA25DC01ED9184
:10057000FC910190F081E02D09940F931F93CF938C
:10058000DF93EC010E947E1D088119812A813B8145
:10059000601B710B820B930B693C71058105910502
:1005A00080F080E00E94961E61E0892B09F060E0F7
:1005B00080E00E94681E0E947E1D688379838A8382
:1005C0009B83DF91CF911F910F9108956AE00E9464
:1005D000E5228295807F890F0895982F92959F70CC
:1005E0008F702AE0929F800D11240895CF93C82F19
:1005F0008A3030F469E271E085E695E00E94D82007
:100600004AE050E06C2F85E695E0CF910C94CE2126
:10061000CF93DF93D82FC0E0CD1751F061E08FE08A
:100620000E94681E60E08FE00E94681ECF5FF4CFDA
:10063000DF91CF910895CF93DF93D82F81E00E946F
:10064000080360E082E00E94681ECFEFCABB86E329
:100650008BBB82E00E9408031ABACBBB82E00E94E7
:100660000803CABBDBBB82E00E9408031ABACBBBFB
:1006700061E082E00E94681E83E00E94080381E03E
:100680000E94080360E082E00E94681ECABB83E209
:100690008BBB82E00E9408031ABACBBB61E082E008
:1006A0000E94681E83E0DF91CF910C9408031F9392
:1006B000CF93DF93182FD92F81E00E94080360E0C9
:1006C00082E00E94681ECFEFCABB81E28BBB82E052
:1006D0000E9408031ABACBBB82E00E940803CABB7F
:1006E0001BBB83E00E940803DBBB82E00E9408037F
:1006F0001ABACBBB61E082E0DF91CF911F910C94DD
:10070000681E60E086E10E94681E86E00E94080381
:1007100061E086E10E94681E82E00C9408030E945A
:100720002B1408950E94391508950F931F93CF93AA
:10073000DF9300D0CDB7DEB78B01AE014F5F5F4FC7
:1007400060E270E00E94C0169981F80190830F90DA
:100750000F90DF91CF911F910F9108950F931F93E9
:10076000CF93DF9300D0CDB7DEB78B01AE014F5FE3
:100770005F4F60E270E0009721F470E060E090E08D
:1007800080E00E9492179981F80190830F900F905A
:10079000DF91CF911F910F910895B0E0A0E0BC01CF
:1007A000CD0129E0660F771F881F991F2A95D1F781
:1007B0000E94961808950F931F93CF93DF9366239B
:1007C00009F476C08A01C62FD82F6EE770E085E65F
:1007D00095E00E94D8204AE050E06C2F85E695E035
:1007E0000E94CE216BEE71E085E695E00E94D82054
:1007F00062EA70E0C330C1F058F46FE870E0C130D5
:1008000099F068E970E0C23079F06FEC70E00CC0EC
:1008100065EB70E0C53041F06AEA70E0C53020F069
:1008200061EC70E0C63089F785E695E00E94D8203B
:1008300067ED70E085E695E00E94D82067EE70E0F5
:10084000D230A1F058F46CED70E0DD2379F062EE67
:1008500070E0D13059F06FEC70E008C06CEE70E0E1
:10086000D33021F062EF70E0D430A9F785E695E04F
:100870000E94D82067EF70E085E695E00E94D820BE
:100880000115110559F062E071E085E695E00E94DE
:10089000D820B80185E695E00E94D82069EB72E087
:1008A00085E695E0DF91CF911F910F910C94FD208B
:1008B000DF91CF911F910F910895CF93C82F6CE0D6
:1008C00071E085E695E00E94D8204AE050E06C2F68
:1008D00085E695E00E94CE21C05DC093690087E661
:1008E00090E00E9492036DE074E082E194E00E9447
:1008F000950380910D04882399F06BEE71E085E6F5
:1009000095E00E94D82062E174E085E695E00E94BF
:10091000D82069EB72E085E695E0CF910C94D82061
:10092000CF91089566E171E08DE894E00E94442241
:100930006FE171E087E894E00C94442287E894E04A
:100940000E94D5218DE894E00C94D52185E695E0B0
:100950000E94BF1E892B41F080917904882321F0E9
:1009600060E081E00C94681E089585E695E00E94A1
:10097000BF1E181619062CF485E695E00E94D91EB4
:10098000F4CF64E570E085E695E00E94EB2085E613
:1009900095E00E94BF1E18161906CCF70895EF9235
:1009A0000F93CF93C22F68E670E088E994E00E942D
:1009B000A01A70E060E088E994E00E94B60280919D
:1009C0006F040E94E602682F88E994E00E94281ACA
:1009D00080916E040E94E602682F88E994E00E94EC
:1009E000281A80916D040E94E602682F88E994E03D
:1009F0000E94281A61E070E088E994E00E94B60243
:100A00008C2F0E94E602682F88E994E00E94281A41
:100A1000802F0E94E602682F88E994E00E94281A3D
:100A20008E2D0E94E602682F88E994E00E94281A21
:100A300088E994E0CF910F91EF900C941B1B6F927B
:100A40007F928F929F92AF92BF92CF92DF92EF925E
:100A5000FF920F931F93CF93DF934C015B01EA0149
:100A6000390168E670E088E994E00E94A01A70E01D
:100A700060E088E994E00E94B60288E994E00E9470
:100A80001B1B42E150E068E670E088E994E00E94B8
:100A9000181B88E994E00E94CF198F770E94ED021D
:100AA000F401808388E994E00E94CF190E94ED024E
:100AB000F501808388E994E00E94CF198F730E942A
:100AC000ED02888388E994E00E94CF1988E994E0D8
:100AD0000E94CF190E94ED02F301808388E994E01F
:100AE0000E94CF190E94ED02F801808388E994E00A
:100AF0000E94CF190E94ED02F7018083CAE088E9C5
:100B000094E00E94CF19C150D1F788E994E00E9487
:100B1000CF19F6018083DF91CF911F910F91FF9044
:100B2000EF90DF90CF90BF90AF909F908F907F908D
:100B30006F900895CF92DF92EF92FF920F931F93E1
:100B40008823A1F089E6C82E84E0D82E9AE6E92E03
:100B500094E0F92E0BE614E02CE634E04DE654E088
:100B60006EE674E08FE694E00E941F0580916C04AD
:100B70000E94F6026BE271E085E695E00E94D820C3
:100B800080916B040E94F6026BE271E085E695E0CD
:100B90000E94D82080916A040E94F60265E971E003
:100BA00085E695E00E94D82080916D040E94F602AF
:100BB00065E471E085E695E00E94D82080916E049E
:100BC0000E94F60265E471E085E695E00E94D82077
:100BD00080916F041F910F91FF90EF90DF90CF9065
:100BE0000C94F602CF92DF92EF92FF920F931F9335
:100BF000CF93DF9389E6C82E84E0D82E9AE6E92EBB
:100C000094E0F92E0BE614E02CE634E04DE654E0D7
:100C10006EE674E08FE694E00E941F051092820455
:100C20006DE271E085E695E00E94FD2067E471E0E9
:100C300085E695E00E94FD20CAE0D6EF11E065E967
:100C400071E085E695E00E94D82080918204823090
:100C500009F489C008F064C0882309F470C08130A9
:100C600009F478C00E947E1D609375047093760429
:100C7000809377049093780485E794E00E94BD0206
:100C800085E695E00E94D91E80937404853709F4A7
:100C900090C0853509F48DC0843709F496C0843539
:100CA00009F493C08D3041F76DE085E695E00E9430
:100CB0004B1F809174048D3011F6809182048F5FF8
:100CC00080938204863008F4BACFE0906A040091E1
:100CD0006B0420916C0440916D0460916E048091CE
:100CE0006F040E94CF0462EC71E085E695E00E94FB
:100CF000FD2061ED71E085E695E00E94D82081E05D
:100D00000E949A0569EB72E085E695E0DF91CF914C
:100D10001F910F91FF90EF90DF90CF900C94FD20EA
:100D20008430F1F1A0F1853009F09CCF66EB71E0E1
:100D300085E695E00E94D82080916F0408C066E7A0
:100D400071E085E695E00E94D82080916A040E94B7
:100D5000F60288CF6FE771E085E695E00E94D82023
:100D600080916B04F4CF69E871E085E695E00E941C
:100D7000D8206DE085E695E00E944B1F67E971E0A1
:100D800085E695E00E94D82080916C04E0CF60EA6F
:100D900071E085E695E00E94D82080916D04D7CF60
:100DA0006AEA71E085E695E00E94D82080916E04A1
:100DB000CECF909182049230F1F1E8F4992351F171
:100DC000913089F1843709F06FCF809182048230AD
:100DD00009F48AC008F062C0882309F470C0813029
:100DE00009F062CF80916B048B3008F478C08A5090
:100DF00080936B0459CF943009F447C0E8F19530E3
:100E000009F780916F048F5F8C3308F4C7C010928C
:100E10006F044ACF80916A048F5F843608F4BBC0A8
:100E200010926A0441CF80916B048F5F8D3000F384
:100E300090936B0439CF80916C048F5F80936C0426
:100E4000E0916B04E23089F490E020916A04237011
:100E500049F42DE130E0281739070CF025CF109325
:100E60006C0422CF2CE130E0F6CFF0E0EC52FC4FE6
:100E700090819817A0F318CF80916D048F5F88310F
:100E800008F483C010926D040FCF80916E048F5FC1
:100E90008C3308F47DC010926E0406CF843009F4C0
:100EA0005CC008F44AC0853009F0FECE20916F0482
:100EB000265F2C3308F061C020936F04F5CE20919B
:100EC0006A04265F243618F420936A04EDCE822F3C
:100ED0006C2F0E94E5228D9F200D1124F5CF8330C9
:100EE00008F0E2CE865F84CF20916C04265F2093C9
:100EF0006C04422F50E0E0916B04F0E0EC52FC4FA8
:100F0000808190E030916A04337061E070E011F00C
:100F100070E060E0860F971F841795074CF4822FCE
:100F20006C2F0E94E5228D9F200D112420936C04CC
:100F300080916C048111B8CE92CF20916D04265F10
:100F4000283118F420936D04AFCE822F6C2F0E94AD
:100F5000E5228D9F200D1124F5CF20916E04265F90
:100F60002C3318F420936E049FCE822F6C2F0E9496
:100F7000E5228D9F200D1124F5CF822F6C2F0E942A
:100F8000E5228D9F200D112497CF80936D048CCE88
:100F900080936E0489CE80936A0486CE80936F041A
:100FA00083CECF92DF92EF92FF920F931F93CF9356
:100FB00083E00E94961E892B09F030C383E10E94D2
:100FC000961E892B09F086C182E10E94961E8093AD
:100FD000860429B3209385048823E9F020937D00BB
:100FE000109284041092830460E08EE00E94681ED8
:100FF00060E080E00E94681E61E080E00E94681E60
:1010000061E08EE0CF911F910F91FF90EF90DF9004
:10101000CF900C94681EE0917D00EE30F8F4F0E083
:10102000EC5EF74F0C942723220829082E083A0873
:10103000550862086F087D088B089908B808E5080C
:10104000F908550960E020FF61E08DE00E94681E0C
:1010500005C0622F85E695E00E944B1F80917D00C0
:101060008A3009F4C1CF8C3009F4BECF8FEF809362
:101070007D00BACF80918104882381F360E270E023
:1010800088E994E00E94A01A62E170E088E994E0A7
:101090000E94B6026091850488E994E00E94281AB3
:1010A00088E994E00E941B1BD9CF8091810488239A
:1010B000A9F260E270E088E994E00E94A01A63E17E
:1010C00070E0E4CF80918104882341F260E270E017
:1010D00088E994E00E94A01A70E060E0D7CF809188
:1010E0008104882309F4BACF60E270E088E994E0D3
:1010F0000E94A01A61E070E0C9CF8091810488232A
:1011000009F4ACCF60E270E088E994E00E94A01A94
:101110006CE070E0BBCF80918104882309F49ECFFE
:1011200060E270E088E994E00E94A01A6DE070E04F
:10113000ADCF80E12436C8F480910804805D8093AF
:101140007400822F6AE00E94E52290E3980F90934A
:10115000760060E3620F26EF829F600D112460939A
:10116000770082E790E00E9439158093660076CF81
:101170008091830490918404622F70E0009751F471
:1011800070930C0460930B040196909384048093F5
:10119000830464CF20910B04362F30930C042093EA
:1011A0000B0440910A042115324040F4403248F4C7
:1011B000109266002FEF20937D00E6CF21E14032B0
:1011C00008F022E120936600F5CF20930A04809175
:1011D0000B0490910C048115924028F4203238F4CD
:1011E000109266003BCF81E1203208F4BECF82E14D
:1011F000BCCF8091830490918404892BD1F4809199
:101200000B0490910C048115F2E09F0790F420915B
:101210000A04203270F43091660031110AC065E092
:10122000880F991F6A95E1F7822B0E94CD03809366
:10123000660080916600811133C0809183048F71B4
:1012400080938204E82FF0E0EE5EFB4F90918504DE
:1012500090838F3129F569E074E082E194E00E9487
:10126000AE038093660080910904803218F483E114
:101270008093660080918304909184048F3F914015
:1012800078F080916600811108C069E074E090E018
:1012900080E00E94AE03809366008FEF80937D0014
:1012A00080918304909184046FCF213069F028F0FD
:1012B000223009F0D3CE60E008C061E08CE00E94EB
:1012C000681E60E08BE0C2CE61E08CE00E94681E88
:1012D00061E0F8CF84E10E94961E892B09F084CE4C
:1012E00082E10E94961E80938604109285048823D2
:1012F00071F18FEF8093850485E695E00E94BF1E13
:101300001816190604F585E695E00E94D91E80930B
:1013100085041092710461E081E00E94681ECFEFA5
:10132000CABB809185048BBB60E08EE00E94681E82
:1013300060E080E00E94681E82E090E00E94E91D6B
:101340001ABACBBB59CE81E080937104E4CFE0910F
:101350007D00E058E93048F5F0E0EF54F64F0C948A
:101360002723BA09E3090C0A190A350A840A870AED
:10137000DE0AE30A8DE00E94961E8093820462E0FA
:101380008DE00E942C1E8DE00E94961E21E0892B8C
:1013900009F020E02093850461E08DE00E942C1E7E
:1013A000609182048DE00E94681E80917D00982FDC
:1013B0009D7F943809F4B3CF883809F4B0CF8FEF0C
:1013C00080937D00ACCF80918104882371F360E22B
:1013D00070E088E994E00E94A01A62E170E088E978
:1013E00094E00E94B60288E994E00E941B1B60E230
:1013F00070E088E994E00E94A01A41E050E060E2C9
:1014000070E088E994E00E94181B88E994E00E944B
:10141000CF1980938504C9CF80918104882329F254
:1014200060E270E088E994E00E94A01A63E170E055
:10143000D6CFC0917004CC0F80910F04C82B85E6E5
:1014400095E00E94BF1E181619065CF484E0C82BB4
:1014500080917104882339F088E0C82BC0938504FB
:10146000A4CF80E0F4CF80E0F8CF8091700488238F
:1014700009F446C08091830490918404892BA1F4DF
:1014800049E6C42E44E0D42E5AE6E52E54E0F52E6B
:101490000BE614E02CE634E04DE654E06EE674E032
:1014A0008FE694E00E941F0580918304909184044C
:1014B0008730910528F520916C0483309105E9F07F
:1014C00068F420916E0481309105B9F020916D048B
:1014D0008230910591F020916F040FC020916A0431
:1014E0008530910551F020916B048530910528F0ED
:1014F000209169048630910571F72093850458C0C6
:101500008FEF80937D0051CF8091660082CF8091D4
:10151000830490918404892BD1F480910B049091E1
:101520000C04811532E0930790F420910A042032D4
:1015300070F43091660031110AC035E0880F991FB0
:101540003A95E1F7822B0E94CD038093660080914B
:101550006600811122C0809183048F718093820480
:10156000811113C06DE074E082E194E00E94950364
:101570008093660080910D04803218F483E180939B
:10158000660080916600811108C0E0918204F0E05D
:10159000EE5EFB4F8081809385048091830490915F
:1015A00084048F3F51E0950718F02FEF20937D00C2
:1015B00001969093840480938304F7CE82E394E0B1
:1015C0000E942B1426CF8091830490918404892B50
:1015D000A1F40E947E1D2AE04EE554E00E9474258D
:1015E0008EE594E0FC0101900020E9F7CF018F55D2
:1015F000944090935D0480935C0480918304909167
:10160000840420915C0430915D042817390708F4A4
:1016100077CFFC01E25AFB4F20816FCFCF911F9112
:101620000F91FF90EF90DF90CF900895EF920F937E
:10163000CF93DF9300D000D000D0CDB7DEB768E6FF
:1016400070E088E994E00E94A01A88E994E00E9482
:101650001B1B811176C16EEE71E085E695E00E945C
:10166000D82081E00E949A0569EB72E085E695E05A
:101670000E94FD206DE072E085E695E00E94D82092
:1016800060916904062E000C770B4AE050E085E675
:1016900095E00E94BA2162E372E085E695E00E943F
:1016A000FD2068E670E088E994E00E94A01A6FE0EF
:1016B00070E088E994E00E94B60288E994E00E9414
:1016C0001B1B41E050E068E670E088E994E00E946E
:1016D000181B88E994E00E94CF1987FF0AC128E00F
:1016E00030E046E050E06DE874E0CE0101960E94E3
:1016F0008322CE0101960E94C92260936F04CE011D
:1017000001960E94D52125E030E043E050E06DE8ED
:1017100074E0CE0101960E948322CE0101960E94C0
:10172000C92260936E04CE0101960E94D52122E069
:1017300030E050E040E06DE874E0CE0101960E9498
:101740008322CE0101960E94C92260936D04CE01CE
:1017500001960E94D52126E030E044E050E067E8A1
:1017600074E0CE0101960E948322CE0101960E9470
:10177000C92260936C04CE0101960E94D52170E0CD
:1017800060E087E894E00E947222EFEBE80FE3311B
:1017900008F02FC00E2E000CFF0BEF52F44F0C94EC
:1017A0002723810CF90BF90B9F0CF90B7F0CF90B1C
:1017B000F90BF90BE40BF90BF90B8D0C9D0C9B0C41
:1017C000F90BF90BF90B990C61E070E087E894E0F4
:1017D0000E947222813609F48EC062E070E087E8D0
:1017E00094E00E9472228E3609F487C087E08093CD
:1017F0006B042BE030E049E050E067E874E0CE0194
:1018000001960E948322CE0101960E94C922609314
:101810006A04CE0101960E94D52164E372E085E658
:1018200095E00E94FD206CE472E085E695E00E9460
:10183000D82080E00E949A0567E772E085E695E08F
:101840000E94D8200E947E1D6093750470937604D8
:10185000809377049093780485E794E00E94BD021A
:1018600085E695E00E94D91E80937404893731F093
:10187000893521F08E3611F08E3471F7682F85E6A8
:1018800095E00E941421809174048F7D8935D9F4EC
:10189000E0906A0400916B0420916C0440916D0407
:1018A00060916E0480916F040E94CF0462E872E040
:1018B00085E695E00E94D82081E00E949A0585E6A1
:1018C00095E00E94E72068E670E088E994E00E94D5
:1018D000A01A6FE070E088E994E00E94B60268E028
:1018E00070E088E994E00E94B60288E994E00E94E2
:1018F0001B1B81E027C081E07ACF86E078CF82E0B1
:1019000076CF62E070E087E894E00E94722282372E
:1019100011F088E06CCF84E06ACF62E070E087E885
:1019200094E00E947222823711F085E060CF83E05C
:101930005ECF89E05CCF8AE05ACF8BE058CF8CE055
:1019400056CF80E026960FB6F894DEBF0FBECDBF0F
:10195000DF91CF910F91EF900895CF93DF9361E0E6
:1019600086E10E942C1E60E086E10E94681E61E014
:1019700080E00E942C1E60E080E00E94681E62E011
:101980008DE00E942C1E8DE00E94961EEC0161E00D
:101990008DE00E942C1E61E08DE00E94681E62E0D6
:1019A00081E00E942C1E61E081E00E942C1E61E01B
:1019B00081E00E94681E61E082E00E942C1E61E0CE
:1019C00082E00E94681E60E083E00E942C1E62E0BC
:1019D0008EE00E942C1E61E08EE00E942C1E61E0D1
:1019E0008EE00E94681E1ABA8FEF8BBB62E085E121
:1019F0000E942C1E62E084E10E942C1E62E083E1C2
:101A00000E942C1E62E082E10E942C1E61E08CE0AC
:101A10000E942C1E61E08CE00E94681E61E08BE059
:101A20000E942C1E60E08BE00E94681E61E08FE047
:101A30000E942C1E0E94810362E08AE00E942C1EFC
:101A400061E087E10E942C1E60E087E10E94681E31
:101A500064E670E080E090E00E94B01D61E087E104
:101A60000E94681E64EF71E080E090E00E94B01D6B
:101A70008DE090E00E94B402823028F061E08DE0B9
:101A800090E00E94A0028DE090E00E94B40280935A
:101A900072048EE090E00E94B402809308048530C6
:101AA00038F060E08EE090E00E94A00210920804FE
:101AB00088E994E00E94841A60E270E088E994E08A
:101AC0000E94A01A88E994E00E941B1B811103C0A8
:101AD00081E08093810426E040E052EC61E070E018
:101AE00085E695E00E94921F6AEB71E085E695E03D
:101AF0000E94EB2063EA71E085E695E00E94B42045
:101B00008091720467EA72E0811102C069EA72E0B2
:101B100085E695E00E94D8206BEA72E085E695E0C4
:101B20000E94FD200E94160B809370048091810416
:101B3000882331F06DE871E085E695E00E94EB20A6
:101B400066E771E085E695E00E94B4208CE090E0C5
:101B50000E94B402823028F060E08CE090E00E94A5
:101B6000A0028CE090E00E94B40280930F046FEA20
:101B700072E0811102C062EB72E085E695E00E949E
:101B8000FD2082E394E00E948F0382E394E00E94B0
:101B90008F038AE090E00E94B40280938004CD2BF2
:101BA00019F0853008F4E6C085E695E00E94BF1E76
:101BB000181619062CF485E695E00E94D91EF4CF7C
:101BC00085E695E00E94E7206AE471E085E695E00D
:101BD0000E94EB2085E695E00E94E720809180043A
:101BE000D1E38530C0F46AE371E085E695E00E94B8
:101BF000B4206091800470E06F5F7F4F4AE050E056
:101C000085E695E00E94BA2169EB72E085E695E0F1
:101C10000E94FD20D0E360E371E085E695E00E943C
:101C2000EB2066E271E085E695E00E94EB2064E13E
:101C300071E085E695E00E94B420809108040E943E
:101C40005D0465E071E085E695E00E94EB206BEFB6
:101C500070E085E695E00E94EB206CED70E085E693
:101C600095E00E94B4208091720469EA72E08111CB
:101C700002C067EA72E085E695E00E94D82066EB34
:101C800072E085E695E00E94FD206BEB72E085E650
:101C900095E00E94D82080910F046FEA72E08823BB
:101CA00011F062EB72E085E695E00E94D82069EBC6
:101CB00072E085E695E00E94FD2068ED72E085E621
:101CC00095E00E94D820809108040E945D0485E67A
:101CD00095E00E94E72080917004C8E3882339F0E2
:101CE00064EE72E085E695E00E94FD20C9E385E69A
:101CF00095E00E94E7200E947E1D6093750470931A
:101D0000760480937704909378046DEF72E085E613
:101D100095E00E94D82085E794E00E94BD0285E608
:101D200095E00E94D91E809374048D17A4F3C81700
:101D300094F3682F85E695E00E94E02061E173E06E
:101D400085E695E00E94FD2080917404873309F4B4
:101D500086C00CF070C0863309F475C060917404BD
:101D60006153609380048AE090E0653008F0DCC045
:101D70000E94A00280918004823071F46EE770E0CE
:101D800085E695E00E94B420809108040E945D04DD
:101D900085E695E00E94E72080918004823009F476
:101DA000F6C008F0C6C0882309F4DAC0813009F40F
:101DB000E5C061E080E00E94681E80917A04909105
:101DC0007B04892B79F090E080E00E94570383EC3C
:101DD0000E941B0380917A040E941B0380917B0464
:101DE0000E941B0380917A0490917B040E94570308
:101DF00080918004843008F0BBC182E394E00E94AB
:101E00002B14882309F4FCC082E394E00E942B1475
:101E100080930E04882309F4F3C050E040E0609101
:101E20000E0480E00E94DB030E94B50482E394E08C
:101E30000E948F03E9CF8833E1F0893309F08ECF18
:101E40000E94F2058BCF61E080917204811160E005
:101E5000609372048DE090E00E94A0027FCF61E069
:101E600080910F04811160E060930F048CE090E09A
:101E7000F3CF6FE970E085E695E00E94EB2080915A
:101E8000080480937304C5E0D0E08091730490E06F
:101E90000196BE010E94F1228093730466E173E013
:101EA00085E695E00E94D820809173040E945D042D
:101EB0006CE870E085E695E00E94B42085E695E048
:101EC0000E94BF1E181619062CF485E695E00E94A4
:101ED000D91EF4CF85E695E00E94BF1E181619069C
:101EE0002CF085E794E00E94BD02F4CF85E695E0F2
:101EF0000E94D91E809374048D3011F08B3129F625
:101F000085E695E00E94E72085E695E00E94E720BF
:101F1000809174048D3009F021CF60917304609337
:101F200008048EE090E098CF0E94B4028093800471
:101F300021CF833009F461C0843009F03ACFE9EF52
:101F4000F1E08591949190937F0480937E048AE6DA
:101F500092E090937D0480937C0480E19DEF3AC0F1
:101F60008BE193E0909311048093100410927B0412
:101F700010927A0481E0809379041BCF87E293E08A
:101F8000909311048093100480E091E023C080912D
:101F90000804823021F170F48823A1F0813009F027
:101FA00008CF8DE393E0909311048093100480E8B0
:101FB00090E010C08330B1F0843009F0FACE8FE5A4
:101FC00093E012C083E393E0909311048093100494
:101FD00080EE91ED90937B0480937A04EACE88E4BE
:101FE00093E0CECF83E593E09093110480931004A7
:101FF00010927B0410927A04DCCE87E693E0F4CF53
:1020000080911004909111040E94391580930E0460
:10201000882341F1409110045091110460910E0405
:1020200081E00E94DB030E94B5048091100490912E
:1020300011040E94391580930E04833081F082E3ED
:1020400094E00E948F0382E394E00E948F038091CA
:102050001004909111040E94391580930E04809110
:102060000E04D6CF64E773E085E695E00E94D820A1
:10207000609110047091110485E695E00E94D820CB
:1020800060E973E085E695E00E94D8206DE074E099
:1020900082E194E00E94950380930E0410927304F1
:1020A000E091730480910D04E81760F4F0E0EE5EB7
:1020B000FB4F80810E941B03809173048F5F80938C
:1020C0007304EECF60910E04803281F46623F1F246
:1020D000409110045091110482E00E94DB030E94A1
:1020E000B50490E080E00E94CD0302C06111F0CF02
:1020F00080910E048111CACF62EB73E085E695E012
:102100000E94FD2060E086E10E94681E82B5877F04
:1021100082BD85B5816085BD85B5897F85BD85B565
:10212000886085BD85B58F7B85BD85B5806185BDA2
:1021300085B58F7D85BD8091720483BD61E08FE0A0
:102140000E942C1E68EB73E085E695E00E94FD205E
:1021500085E695E00E94E72085E695E00E94BF1E97
:102160001816190604F585E695E00E94D91EF4CFED
:1021700065E973E085E695E00E94D820D0E0C0E0F4
:1021800080917C0490917D04C817D90708F0B4CFE2
:10219000E0917E04F0917F04EC0FFD1F84910E947A
:1021A0001B032196EDCF61E070E080E090E00E949B
:1021B000B01D61E086E1DF91CF910C94681E8FB96C
:1021C000779BFECF08958FEF0E94DF108FB10895A7
:1021D000FF920F931F93CF93DF93C82FD42F152F08
:1021E000062FF72E8091950481113FC083E58DB9AC
:1021F0001EB8C7FF09C040E050E0BA0187E70E945F
:10220000E810823060F5CF7761E084E00E94681EBC
:102210000E94E31060E084E00E94681E0E94E310C8
:102220008C2F0E94DF108F2D0E94DF10802F0E94C4
:10223000DF10812F0E94DF108D2F0E94DF1085E9B3
:10224000C03421F087E8C83409F081E00E94DF1033
:10225000CAE00E94E31087FF02C0C150D1F7DF91AE
:10226000CF911F910F91FF90089580E58DB981E086
:102270008EB9BFCF0F931F93CF93DF93C091930479
:10228000D09194042197CD3F8FEFD80721F080E0C3
:102290000E94DF10F7CF0E94E3108F71853079F034
:1022A000D1E0C0E061E084E00E94681E0E94E3107B
:1022B0008D2F9C2FDF91CF911F910F91089508E8EA
:1022C00013E1C0E9D1E00E94E3108F3F49F001150E
:1022D000110531F3CE010197F1F701501109F3CF48
:1022E000D1E0C0E0012BF1F2D0E0DCCFAF92BF92A1
:1022F000CF92DF92EF92FF920F931F93CF93DF93D2
:1023000000D000D0CDB7DEB780919504882339F096
:1023100084E00E94961E892B11F40E943A1161E01C
:1023200084E00E94681E61E084E00E942C1E61E04F
:1023300085E00E942C1E61E087E00E942C1E61E077
:1023400084E00E942C1E83E58DB91EB861E084E014
:102350000E94681E1AE00E94E3101150E1F740E06D
:1023600050E0BA0180E40E94E810182F8130D9F0C3
:1023700010E01093950461E084E00E94681E0E94C2
:10238000E31081E0111180E00F900F900F900F90FB
:10239000DF91CF911F910F91FF90EF90DF90CF9041
:1023A000BF90AF9008954AEA51E060E070E088E4A1
:1023B0000E94E810813079F5CE0101967C016E0112
:1023C00095E0C90ED11C87010E94E310F8018193AA
:1023D0008F01CE16DF06C1F78B81813049F68C81E3
:1023E0008A3A31F620E1C22E27E2D22E30E9A32E1E
:1023F000BB24B39440E050E060E070E489EE0E94BA
:10240000E810882359F1C5010197F1F7F1E0CF1ADF
:10241000D10881F7ADCF40E050E0BA0189EE0E94CB
:10242000E81001E4823010F412E009EE80E1E82EB9
:1024300087E2F82E90E9C92EDD24D39440E050E0E5
:10244000BA01802F0E94E8108823F1F0C60101979D
:10245000F1F7F1E0EF1AF10889F78ACF40E050E098
:10246000BA018AE70E94E810811182CF0E94E3102E
:10247000F70181937F010E171F07C1F789811CE0C7
:1024800086FD77CF14E075CF40E052E060E070E069
:1024900080E50E94E810882309F46BCF69CFCF92C2
:1024A000DF92EF92FF920F931F93CF93DF937C0104
:1024B00069018091950483FD07C089E0440F551F91
:1024C000661F771F8A95D1F781E50E94E810811178
:1024D00008C0C0E4DCE90E94E3108F3F29F4219793
:1024E000D1F7C1E0D0E022C08E3FD9F7C2E0D2E000
:1024F000C01BD10BCC19DD0981E0C81AD10818F036
:102500000E94E310F9CFE114F10401F10E0D1F1D3B
:102510000E94E310F70181937F010E171F07C1F797
:102520000E94E3102197E1F7D0E0C0E061E084E091
:102530000E94681E0E94E310CE01DF91CF911F918F
:102540000F91FF90EF90DF90CF9008950E94E310DD
:1025500001501109D9F7E4CFEF92FF920F931F9327
:10256000CF93DF930097C9F0EA018C012097B1F176
:10257000E0909304F0909404E114F10479F1F801EF
:1025800081918F010E94DF10F1E0EF1AF108F092C3
:102590009404E09293042197E9CF41155105610518
:1025A000710529F18091950483FD07C089E0440FEE
:1025B000551F661F771F8A95D1F788E50E94E8109E
:1025C00081111DC08FEF0E94DF108EEF0E94DF107F
:1025D00080E092E0909394048093930490E080E0F4
:1025E000DF91CF911F910F91FF90EF900895DF91B0
:1025F000CF911F910F91FF90EF900C943A1181E0D1
:1026000090E0EECF0F931F93E0919604F091970422
:102610009B01AC0122503109410951098681978102
:10262000A085B1850297A109B109281739074A0782
:102630005B0778F4A281B0E00E942D230289138900
:1026400024893589600F711F821F931F1F910F917D
:10265000089560E070E0CB01F9CF0F931F93CF9303
:10266000DF93EC01E0919604F091970419821882AF
:102670006C817D818E819F8161307105810591051D
:1026800081F10681178120853185601771078207E6
:10269000930738F5611571058105910539F420819D
:1026A000233021F4668577858089918968877987C9
:1026B0008A879B87611571058105910569F00E94E4
:1026C00002136C877D878E879F8790E080E0DF9183
:1026D000CF911F910F9108956685778580899189A3
:1026E000F0CF81E090E0F3CF0F931F93CF93DF9370
:1026F00000D000D0CDB7DEB76230710581059105FD
:1027000028F461E070E080E090E055C0E09196042C
:10271000F091970406811781208531856017710734
:102720008207930770F7AB01BC018081823031F1E1
:10273000833039F79A012F773327220F331F220F67
:10274000331F97E076956795579547959A95D1F7FA
:1027500082859385A485B585480F591F6A1F7B1F05
:1027600004E010E0CE0101960E944F12892B49F639
:1027700069817A818B819C819F701DC09A0133276A
:10278000220F331F452F562F672F7727828593857A
:10279000A485B585480F591F6A1F7B1F02E010E012
:1027A000CE0101960E944F12892B09F0AACF6981B0
:1027B0007A8190E080E00F900F900F900F90DF9162
:1027C000CF911F910F910895CF92DF92EF92FF92D8
:1027D0000F931F93CF93DF93EC016A017B0102E01B
:1027E00010E02EEF31E00E944F12892B31F58881E5
:1027F000998185359A4A59F526E330E0B701A6015B
:10280000CE010E944F12892B29F488819981863448
:10281000914489F002E010E022E530E0B701A60122
:10282000CE010E944F12892BA1F481E028813981C9
:102830002634314419F480E001C083E0DF91CF9168
:102840001F910F91FF90EF90DF90CF90089582E05D
:10285000F5CF81E0F3CF2F923F924F925F926F922C
:102860007F928F929F92AF92BF92CF92DF92EF9220
:10287000FF920F931F93CF93DF93CDB7DEB7A4974B
:102880000FB6F894DEBF0FBECDBF1C0110929704A7
:10289000109296040E94761180FDC3C040E050E083
:1028A000BA01CE0101960E94E413412C512C320151
:1028B0008130C1F500E110E02EEB31E040E050E066
:1028C000BA01CE0101960E944F12892BD9F081E006
:1028D00090E0A4960FB6F894DEBF0FBECDBFDF9197
:1028E000CF911F910F91FF90EF90DF90CF90BF900D
:1028F000AF909F908F907F906F905F904F903F90A0
:102900002F9008958D81811103C086E090E0E1CF82
:1029100049845A846B847C84B301A201CE01019660
:102920000E94E413833099F28111EFCF04E210E0AA
:102930002DE030E0B301A201CE0101960E944F12BA
:10294000892B29F62A853B8550E040E02115310589
:102950004105510521F4288D398D4A8D5B8DAC815F
:10296000B0E00E942D234B015C014A815B8170E045
:1029700060E0440E551E661E771EF10142865386A6
:102980006486758629812283CD80DE80D582C482CB
:102990008F819885B0E0A0E00097A105B10521F4F2
:1029A0008C899D89AE89BF8934E0D694C7943A95C5
:1029B000E1F7F12CE12C841B950BA60BB70BBC01A6
:1029C000CD01681979098A099B096C197D098E095D
:1029D0009F0930E050E040E00E940523DA01C90180
:1029E0000296A11DB11DF10186839783A087B1874F
:1029F000265F3F40410951092F3F3F4E4105510598
:102A000098F0873F9F4FA105B10598F47ECF82E0F3
:102A1000F1018083D301C201880D991DAA1DBB1D40
:102A20000FC082E090E055CF873F9F4FA105B105D1
:102A300070F383E0F101808388A199A1AAA1BBA1D1
:102A400086879787A08BB18BC40CD51CE61CF71C1E
:102A5000C80CD91CEA1CFB1CF101C28AD38AE48A87
:102A6000F58A1182309297042092960490E080E0DB
:102A700030CF4F925F926F927F928F929F92BF92D0
:102A8000CF92DF92EF92FF920F931F93CF93DF933A
:102A9000CDB7DEB7EC970FB6F894DEBF0FBECDBF53
:102AA000C0909604D0909704C114D10409F40DC1CC
:102AB000F60111829E012F5C3F4F3CA32BA39C018A
:102AC0007901F90180812F5F3F4F8032C9F38F3246
:102AD00009F479011DA21EA21FA218A6F701808188
:102AE000A0E2BA2E803208F0DDC0CE0181960E94AD
:102AF0002D131982009709F410C1EC960FB6F894C3
:102B0000DEBF0FBECDBFDF91CF911F910F91FF9020
:102B1000EF90DF90CF90BF909F908F907F906F90BD
:102B20005F904F90089520E0E0E088E0D8C0E30E89
:102B3000F11C81E0913208F080E01B968C93CE016D
:102B400081960E942D130097C1F629A13AA12F70FA
:102B50003327F5E0220F331FFA95E1F74DA55EA567
:102B60006FA578A900E210E0CE0101960E944F12F5
:102B7000892B19F081E090E0C0CF8981811103C0D9
:102B800083E090E0BACF8C8583FD13C00BA11CA11C
:102B90009E012F5F3F4FD801B801655F7F4F6A17D5
:102BA0007B0709F4B5C0F90141919F019D91491737
:102BB000B1F309A11AA10F5F1F4F11F38DA59EA5B7
:102BC000AFA5B8A90097A105B105D1F298012F7062
:102BD0003327232BD9F48090960490909704019684
:102BE000A11DB11D8DA79EA7AFA7B8AB69A57AA5FA
:102BF0008BA59CA5F401611571058105910549F42A
:102C0000848195810817190708F0BACF1AA309A380
:102C10009CCF2281E22FE150FF0BAF019801E4E04D
:102C200036952795EA95E1F724233523232B71F771
:102C30000E947413623071058105910508F49ACFE2
:102C4000F40146805780608471846415750586059B
:102C5000970508F095CF69A77AA78BA79CA70E9434
:102C600002136DA77EA78FA798ABD0CF84FF88CF24
:102C7000E0919604F091970480818330F1F48D897E
:102C80009E89B0E0A0E0DC01992788274B8D5C8D00
:102C900070E060E0842B952BA62BB72B8DA39EA311
:102CA000AFA3B8A7ABA1BCA1FD01CD010B968E17B8
:102CB0009F0709F438CFB192FACF80E090E0DC01B1
:102CC000E5CF80E090E0DC013DC085E090E015CFED
:102CD000883009F02CCF9BE0282FE32F892F31E09B
:102CE0003E0FEE0DFF2DF11D9081913208F41FCFA4
:102CF0009F3209F41CCF9E3259F3281708F017CFE2
:102D0000FD01E20FF11D9083982F81E0820FE4CF47
:102D1000F8019385992309F4A9CF8981882309F4BF
:102D20002FCF8C8584FD2CCFE0919604F0919704F1
:102D30008081833031F68D899E89B0E0A0E0DC018E
:102D4000992788274B8D5C8D70E060E0842B952B54
:102D5000A62BB72BF601868F978FA0A3B1A38D8DDD
:102D60009E8DAF8DB8A1828F938FA48FB58F168A59
:102D7000178A108E118E81E0818390E080E0BDCEB5
:102D80004F925F926F927F928F929F92AF92BF927B
:102D9000CF92DF92EF92FF920F931F93CF93DF9327
:102DA0004C017B013A01C0919604D0919704FA013D
:102DB0001182108285E090E0209709F44BC0898150
:102DC00080FFAAC08A8D9B8DAC8DBD8D4E895F8999
:102DD000688D798D841B950BA60BB70BA70170E04E
:102DE00060E084179507A607B70708F47C01540133
:102DF000412C32E0532EE114F10409F490C08E8985
:102E00009F89A88DB98DAC01BD01517066277727C8
:102E1000452B462B472B09F04CC0DA80DA94AC01E5
:102E2000BD0129E076956795579547952A95D1F785
:102E3000D42261F5892B8A2B8B2BE9F46E8D7F8D43
:102E400088A199A16230710581059105D8F4198294
:102E500081E090E0DF91CF911F910F91FF90EF9073
:102E6000DF90CF90BF90AF909F908F907F906F90AA
:102E70005F904F9008956AA17BA18CA19DA10E94B3
:102E80007413E0CF6AA37BA38CA39DA36AA17BA14B
:102E90008CA19DA10E940213611571058105910508
:102EA000B1F26D0D711D811D911D6EA37FA388A7C9
:102EB00099A72E893F893170C201821B930B67014C
:102EC0008E159F0508F46C014EA15FA168A579A538
:102ED000C5018114910411F480E090E086010E9404
:102EE0004F12892B09F0B3CF8E899F89A88DB98D98
:102EF0008C0D9D1DA11DB11D8E8B9F8BA88FB98F31
:102F0000AC0CBD1CEC18FD08F30180819181C80E4A
:102F1000D91ED182C0826FCF84E090E09BCF90E039
:102F200080E098CF4F925F926F927F928F929F92A4
:102F3000AF92BF92CF92DF92EF92FF920F931F93C7
:102F4000CF93DF936C018B015A01C0919604D0910D
:102F50009704FA011182108285E090E02097A1F099
:102F6000898180FFE0C08074672B29F58823E9F010
:102F700040E050E0BA0190E080E00E94AC12892B62
:102F8000A1F0198281E090E0DF91CF911F910F9124
:102F9000FF90EF90DF90CF90BF90AF909F908F9079
:102FA0007F906F905F904F90089589818F7B898388
:102FB00090E080E0E9CF81110AC08E899F89A88DB9
:102FC000B98D88279E7F8E8B9F8BA88FB98F8A8D16
:102FD0009B8DAC8DBD8D4E895F89688D798D841BED
:102FE000950BA60BB70BA80170E060E0841795075E
:102FF000A607B70708F48C01812C32E0932E011547
:103000001105B1F28E899F89A88DB98D9C0131700F
:10301000232B09F040C0FA80FA94AC01BD0129E0ED
:1030200076956795579547952A95D1F7F42299F4A7
:10303000892B8A2B8B2B09F06FC06E8D7F8D88A119
:1030400099A1623071058105910508F49ACF6AA3B0
:103050007BA38CA39DA36AA17BA18CA19DA10E94AF
:103060000213611571058105910509F48ACFAB0141
:10307000BC014F0D511D611D711D4EA35FA368A7BB
:1030800079A790E080E00E94AC12892B09F079CFFB
:103090008981806489838E899F8991709401281B1E
:1030A000390B78012017310708F479012701712CB9
:1030B000612CB301A701C6010E94AC12892B09F053
:1030C00060CF8E899F89A88DB98D840D951DA61D11
:1030D000B71D8E8B9F8BA88FB98FCE0CDF1C0E195E
:1030E0001F09F50120813181E20EF31EF182E08299
:1030F0002C01F1E05F22452809F081CF40E050E04B
:10310000BA0190E080E00E94AC12892B09F039CF1F
:1031100089818F7B898373CF6AA17BA18CA19DA1BB
:103120000E9474138ECF84E090E02ECF4F925F9276
:103130006F927F928F929F92AF92BF92CF92DF92C7
:10314000EF92FF92CF93DF9300D000D000D0CDB7A5
:10315000DEB720919604309197043E832D8321158C
:10316000310509F40CC1D90111962C91119720FF5A
:1031700009C15A96CD90DD90ED90FC905D976C154D
:103180007D058E059F0510F46B017C01ED81FE81AC
:1031900046885788608C718C168A178A108E118E1B
:1031A000C114D104E104F10409F4E6C08280912C39
:1031B000B12CA12C39E0880C991CAA1CBB1C3A9597
:1031C000D1F7411451046104710409F470C0B1E0F5
:1031D0004B1A510861087108C701B60161507109A5
:1031E00081099109A50194010E94052329833A834D
:1031F0004B835C83C301B201A50194010E940523A6
:1032000089819A81AB81BC8182179307A407B50796
:1032100008F44DC088279927DC0188199909AA0963
:10322000BB0984219521A621B721ED81FE81868BE2
:10323000978BA08FB18FC81AD90AEA0AFB0A62A13C
:1032400073A184A195A18C149D04AE04BF0408F061
:1032500058C00E947413623071058105910568F0B1
:10326000AD81BE8116964D905D906D907C901997C2
:10327000641575058605970540F1ED81FE81118283
:1032800081E090E026960FB6F894DEBF0FBECDBF6A
:10329000DF91CF91FF90EF90DF90CF90BF90AF90F4
:1032A0009F908F907F906F905F904F900895AD8129
:1032B000BE815E966D917D918D919C919197FD015E
:1032C00062A373A384A395A3BECFAD81BE81929662
:1032D0006D937D938D939C93959756964D905D90AD
:1032E0006D907C905997480C591C6A1C7B1CFD0101
:1032F000468A578A608E718EC818D908EA08FB087A
:10330000A2CFAD81BE8156968D909D90AD90BC9020
:103310005997C80CD91CEA1CFB1CFD01C68AD78A28
:10332000E08EF18E0E940213AB01BC0141155105E4
:103330006105710529F4AD81BE8111961C92A0CF63
:10334000ED81FE8182818150990B092E000CAA0B20
:10335000BB0B29E0F694E794D794C7942A95D1F74C
:103360008C219D21AE21BF21480F591F6A1F7B1F51
:1033700046A357A360A771A790E080E083CF85E0C4
:1033800090E080CF84E090E07DCF90E080E00895F1
:103390008091CC049091CD04891B990B0895909154
:1033A000CD048091CC042FEF3FEF981748F4E92F1C
:1033B000F0E0E253FB4F208130E09F5F9093CD041B
:1033C000C9010895E091CD048091CC04E81730F450
:1033D000F0E0E253FB4F808190E008958FEF9FEF84
:1033E00008950895CF93DF93EC01E091A404F09148
:1033F000A5043097F1F09091CD048091CC049817FA
:10340000C0F090E0292F30E02617370754F4DE0192
:10341000A20FB31F4C9122533B4FD9014C939F5F96
:10342000F1CF1092CD046093CC04CB01DF91CF910A
:103430000994DF91CF910895E091A604F091A7043B
:10344000309729F01092AA041092A90409940895C3
:10345000CF93DF931F92CDB7DEB769832091A80485
:103460002223F9F02091A904203258F021E030E025
:10347000FC013383228390E080E00F90DF91CF91B5
:1034800008958091AA04E82FF0E0E555FB4F99815B
:1034900090838F5F8093AA048093A90481E090E0D9
:1034A000ECCF61E0CE0101960E94DE1BF7CFCF92F8
:1034B000DF92EF92FF920F931F93CF93DF937C01E4
:1034C000CB018A012091A804222389F0EB016B0132
:1034D000C40ED51ECC15DD0569F06991D701ED91BB
:1034E000FC910190F081E02DC7010995F3CF642F85
:1034F0000E94DE1BC801DF91CF911F910F91FF90B9
:10350000EF90DF90CF9008951092CD041092CC04EC
:103510001092AA041092A9040E942F1B8CE19AE138
:103520000E940A1C82EF99E10C94051C81E08093B3
:10353000A8046093CB041092AA041092A9040895E1
:103540000C94961A0F93062F21E04091A9046BEA80
:1035500074E08091CB040E948A1B1092AA041092FE
:10356000A9041092A8040F9108954F925F926F9250
:103570007F92AF92BF92CF92EF92FF920F931F93E1
:10358000CF93DF935C01F62ED42F28013901EE2072
:1035900019F10E94961ACE2DC43008F0C3E0C15034
:1035A000B8F028E0C29FC0011124A301920104C019
:1035B00056954795379527958A95D2F7B901D50144
:1035C000ED91FC910190F081E02DC5010995E7CFC7
:1035D00060E0C5010E94A21A4D2FD13208F040E2EE
:1035E0002C2D6EEC74E08F2D0E94451B1092CD04A3
:1035F0008093CC04DF91CF911F910F91FF90EF90BA
:10360000CF90BF90AF907F906F905F904F90089554
:10361000CF92EF920F931F93C22EE12C00E010E0A7
:1036200098010E94B51A1F910F91EF90CF900895C5
:1036300021E00C94081B61E00C94A21AE8E9F4E084
:103640001382128288EE93E0A0E0B0E08483958339
:10365000A683B78385EE93E09183808308951092CB
:103660005B0581E0809359051092580561E081E186
:103670000E94681E61E080E10E94681E0898099817
:1036800088E480B985E486BF0895413208F040C0DF
:1036900090915B059111FCCF91E090935B05209395
:1036A00059052FEF2093EE0410923305240F209339
:1036B000320590935A0590915A05880F892B809373
:1036C0005A05809158058130F1F410925805809187
:1036D0005A0583B906B603FCFACF85EC86BF809104
:1036E0005B058130E1F380913305841710F440913C
:1036F0003305A4E3B5E0962FFB018E2F891B8417B9
:1037000020F0842F089585EEE9CF8D918193F5CF38
:1037100040E0F7CF0F93413208F048C090915B052D
:103720009111FCCF92E090935B05009359059FEFB8
:103730009093EE041092330540933205362FA4E3A4
:10374000B5E0FB019E2F931B941758F110925A0578
:1037500090915A05880F892B80935A0580915805BE
:10376000813011F51092580580915A0583B906B63B
:1037700003FCFACF85EC86BF222321F080915B0504
:103780008230D1F38091EE048F3F91F08091EE046E
:10379000803281F08091EE04803371F084E00F91EB
:1037A000089591919D93CECF85EEE5CF81E0F7CF3F
:1037B00080E0F5CF82E0F3CF83E0F1CF20911005D8
:1037C000260F3327331F21323105ECF420915B059E
:1037D000FC0190E080E0243069F082E00895A0913F
:1037E00010052191AC014E5E5A4FA40FB52FB11DAB
:1037F0002C930196861798F380911005680F6093BB
:10380000100580E0089581E0089590935505809318
:10381000540508959093570580935605089585EDB6
:1038200086BF06B604FCFDCF10925B05089585ECBB
:1038300086BF10925B0508951F920F920FB60F92EC
:1038400011242F933F934F935F936F937F938F93A5
:103850009F93AF93BF93EF93FF9381B1887F80369F
:1038600009F44CC008F03FC0883209F4A4C018F530
:10387000803109F49AC0B8F4882309F4F2C0883082
:1038800009F493C0FF91EF91BF91AF919F918F91F8
:103890007F916F915F914F913F912F910F900FBE4C
:1038A0000F901F901895883109F485C0803251F728
:1038B0008093EE0415C0803409F499C048F4803335
:1038C000B9F38833F9F68093EE040E94171CDACF1F
:1038D000803509F481C0883509F491C0883491F6A7
:1038E0000E940F1CCFCF883909F487C030F5883784
:1038F00029F050F4883611F0803721F683E0809368
:103900005B051092EF0454C0883809F476C0803902
:1039100019F0803809F0B6CF8091EF04803208F0BA
:103920006CC0E091EF0481E08E0F8093EF0483B1CF
:10393000F0E0E051FB4F80833BC0803B39F0E0F486
:10394000803A09F473C0883A09F09CCF84E08093F0
:103950005B051092110510921005E0915605F0914B
:10396000570509958091100581110FC081E0809362
:1039700010051092120509C0803C09F470C0883C03
:1039800009F46DC0883B09F07DCFE091110581E01D
:103990008E0F80931105F0E0EE5EFA4F808183B9BF
:1039A000909111058091100526C080915A0583B928
:1039B00085EC86BF67CF90913305809132059817CB
:1039C00048F5E091330581E08E0F80933305F0E0F8
:1039D000EC5CFA4F8081EBCFE091330581E08E0FF4
:1039E0008093330583B1F0E0EC5CFA4F80839091D3
:1039F0003305809132059817D8F285E8DACFE09147
:103A0000330581E08E0F8093330583B1F0E0EC5CE9
:103A1000FA4F808380915905811162CF81E08093B4
:103A2000580584EA86BF10925B052CCF0E94171CB4
:103A30008091EF04803230F4E091EF04F0E0E05147
:103A4000FB4F10826091EF0470E0E0915405F0911B
:103A5000550580EF94E009951092EF0413CF85ECA3
:103A6000E1CF1092EE043CCF1F920F920FB60F924F
:103A700011242F933F938F939F93AF93BF93809184
:103A80005D0590915E05A0915F05B0916005309154
:103A90005C0523E0230F2D3758F50196A11DB11DBC
:103AA00020935C0580935D0590935E05A0935F0570
:103AB000B09360058091610590916205A0916305C6
:103AC000B09164050196A11DB11D8093610590938D
:103AD0006205A0936305B0936405BF91AF919F9178
:103AE0008F913F912F910F900FBE0F901F901895BF
:103AF00026E8230F0296A11DB11DD2CF2FB7F8944F
:103B000060915D0570915E0580915F059091600503
:103B10002FBF08953FB7F894809161059091620599
:103B2000A0916305B091640522B708B600FE05C0F8
:103B30002F3F19F00196A11DB11D3FBFBA2FA92F2C
:103B4000982F8827BC01CD01620F711D811D911D29
:103B500042E0660F771F881F991F4A95D1F7089595
:103B60008F929F92AF92BF92CF92DF92EF92FF928D
:103B70006B017C010E948A1D4B015C01C114D104C0
:103B8000E104F104E9F00E94E4220E948A1D681910
:103B900079098A099B09683E73408105910570F394
:103BA00021E0C21AD108E108F10888EE880E83E00E
:103BB000981EA11CB11CC114D104E104F10429F721
:103BC000FF90EF90DF90CF90BF90AF909F908F903D
:103BD00008958230910538F0880F991F880F991F3A
:103BE00005970197F1F70895789483B7836083BFB1
:103BF00083B7886483BF89B7816089BF82E08EBD47
:103C00008EB581608EBD8FB581608FBD85B58460B6
:103C100085BD85B5806485BD87E886B91AB80895E5
:103C2000843059F028F4813099F0823089F0089579
:103C3000853039F0873041F008958FB58F778FBD8B
:103C400008958FB58F7DFBCF85B58F7D85BD089598
:103C500083B78F7D83BF0895CF93DF9390E0FC01FE
:103C6000EB57FB4F24918B559B4FFC01849188238C
:103C7000C9F090E0880F991FFC01E752FB4FA59116
:103C8000B491FC01E153FB4FC591D49161110DC07A
:103C90009FB7F8948C91209582238C938881282358
:103CA00028839FBFDF91CF910895623051F49FB771
:103CB000F8943C91822F809583238C93E8812E2B5E
:103CC000EFCF8FB7F894EC912E2B2C938FBFEACFC8
:103CD0001F93CF93DF93282F30E0F901EB59FB4F6F
:103CE0008491F901EB57FB4FD491F901EB55FB4F50
:103CF000C491CC23A9F0162F81110E94101EEC2F25
:103D0000F0E0EE0FFF1FE153FB4FA591B4918FB789
:103D1000F894EC91111108C0D095DE23DC938FBF8D
:103D2000DF91CF911F910895DE2BF8CFCF93DF93D2
:103D3000282F30E0F901EB59FB4F8491F901EB5743
:103D4000FB4FD491F901EB55FB4FC491CC23A1F06B
:103D500081110E94101EEC2FF0E0EE0FFF1FEB53BD
:103D6000FB4FA591B491EC91ED2381E090E009F433
:103D700080E0DF91CF91089580E090E0FACFFC01E0
:103D8000918D228D892F90E0805C9F4F821B91093D
:103D90008F7399270895FC01918D828D981731F0CA
:103DA000828DE80FF11D858D90E008958FEF9FEFD4
:103DB0000895FC01918D828D981761F0A28DAE0F50
:103DC000BF2FB11D5D968C91928D9F5F9F73928FD7
:103DD00090E008958FEF9FEF0895FC01538D448D7F
:103DE000252F30E0842F90E0821B930B541710F0A6
:103DF000CF9608950197089583E490E2892B49F0C6
:103E000086EA94E0892B29F00E94432081110C94CA
:103E1000A6040895FC01A48DA80FB92FB11DA35AC3
:103E2000BF4F2C91848D90E001968F739927848FDA
:103E3000A689B7892C93A089B1898C9180648C93D1
:103E4000938D848D981306C00288F389E02D8081BC
:103E50008F7D80830895CF93DF93EC01888D882335
:103E6000B9F0AA89BB89E889F9898C9185FD03C0DD
:103E7000808186FD0DC00FB607FCF7CF8C9185FFC2
:103E8000F2CF808185FFEDCFCE010E940A1FE9CFDE
:103E9000DF91CF910895EF92FF920F931F93CF93ED
:103EA000DF93EC0181E0888F9B8D8C8D981316C079
:103EB000E889F989808185FF11C0EE89FF896083D7
:103EC000E889F98980818064808381E090E0DF91D6
:103ED000CF911F910F91FF90EF900895F62E0B8DCB
:103EE00010E00F5F1F4F0F731127E02E8C8D8E1186
:103EF0000CC00FB607FCFACFE889F989808185FFED
:103F0000F5CFCE010E940A1FF1CFEB8DEC0FFD2FF4
:103F1000F11DE35AFF4FF0820B8FEA89FB89808104
:103F20008062D2CFCF92DF92EF92FF921F93CF9316
:103F3000DF93EC016A017B01122FE889F98982E0A5
:103F40008083C11481EED806E104F104A1F060E0A1
:103F500079E08DE390E0A70196010E9405232150AE
:103F600031094109510956954795379527952115EE
:103F700080E1380798F0E889F989108260E874E8F0
:103F80008EE190E0A70196010E940523215031099E
:103F9000410951095695479537952795EC85FD853B
:103FA0003083EE85FF852083188E1068EC89FD89AB
:103FB0001083EA89FB89808188698083EA89FB898B
:103FC00080818F7D8083DF91CF911F91FF90EF9053
:103FD000DF90CF9008951F920F920FB60F92112489
:103FE0002F938F939F93EF93FF93E0917505F0913B
:103FF00076058081E0917B05F0917C0582FD1BC0F8
:10400000908180917E058F5F8F7320917F0582174D
:1040100041F0E0917E05F0E0EB59FA4F958F8093E7
:104020007E05FF91EF919F918F912F910F900FBE81
:104030000F901F9018958081F4CF1F920F920FB6AA
:104040000F9211242F933F934F935F936F937F931E
:104050008F939F93AF93BF93EF93FF9385E695E084
:104060000E940A1FFF91EF91BF91AF919F918F9195
:104070007F916F915F914F913F912F910F900FBE64
:104080000F901F90189585E695E00E94BF1E21E0D5
:10409000892B09F420E0822F0895E5E6F5E01382EC
:1040A000128288EE93E0A0E0B0E084839583A6833B
:1040B000B78387EF93E09183808380E490E09587D6
:1040C000848729E230E0378726872BE230E0318B86
:1040D000208B2AE230E0338B228B958B848B8CE211
:1040E00090E0978B868B118E128E138E148E08950E
:1040F000AF92BF92CF92DF92EF92FF920F931F93F6
:10410000CF93DF936C017B018B01040F151FEB0133
:104110005E01AE18BF08C017D10759F06991D601EA
:10412000ED91FC910190F081E02DC6010995892B5C
:1041300079F7C501DF91CF911F910F91FF90EF901B
:10414000DF90CF90BF90AF900895FB0101900020C9
:10415000E9F73197AF01461B570BDC01ED91FC915C
:104160000280F381E02D0994EF92FF920F931F9349
:10417000CF93DF938C017B01D0E0C0E0F701EC0F1F
:10418000FD1F6491662361F0D801ED91FC910190CF
:10419000F081E02DC8010995892B11F02196EECF11
:1041A000CE01DF91CF911F910F91FF90EF90089575
:1041B0006115710511F00C94A52090E080E0089540
:1041C000DC01ED91FC910190F081E02D099465E016
:1041D00074E00C94A5200F931F93CF93DF93EC0111
:1041E0000E94B4208C01CE010E94E720800F911F15
:1041F000DF91CF911F910F9108950F931F93CF934C
:10420000DF938C01D0E0C0E06115710519F00E94C8
:10421000A520EC01C8010E94E7208C0F9D1FDF91B3
:10422000CF911F910F9108950F931F93CF93DF9319
:10423000EC010E94E0208C01CE010E94E720800F5B
:10424000911FDF91CF911F910F9108958F929F92AF
:10425000AF92BF92EF92FF920F931F93CF93DF9392
:10426000CDB7DEB7A1970FB6F894DEBF0FBECDBFB6
:104270007C01FA01CB0119A2223008F42AE08E0158
:104280000F5D1F4F822E912CB12CA12CBF01A501D7
:1042900094010E940523F901CA016A300CF5605DA2
:1042A000D8016E938D01232B242B252B79F790E0D9
:1042B00080E0109721F0BD01C7010E94A520A196C2
:1042C0000FB6F894DEBF0FBECDBFDF91CF911F9127
:1042D0000F91FF90EF90BF90AF909F908F900895B7
:1042E000695CDECFCF92DF92EF92FF920F931F9324
:1042F000CF93DF932115310581F4DC01ED91FC9121
:104300000190F081E02D642FDF91CF911F910F91EB
:10431000FF90EF90DF90CF9009942A30310501F59E
:104320002AE077FF1DC06A017B01EC016DE20E946B
:10433000E0208C0144275527BA014C195D096E090C
:104340007F092AE0CE010E942621800F911FDF9174
:10435000CF911F910F91FF90EF90DF90CF90089534
:10436000DF91CF911F910F91FF90EF90DF90CF9051
:104370000C9426219A01AB01770F660B770B0C94F6
:1043800072212115310541F4DC01ED91FC91019080
:10439000F081E02D642F09940C9426219A01462F78
:1043A00050E070E060E00C94C121FC0180819181BB
:1043B0000C94F723CF93DF93EC01888199810097C8
:1043C00011F00E94F723198218821D821C821B8221
:1043D0001A82DF91CF9108950F931F93CF93DF93AC
:1043E000EC018B016F5F7F4F888199810E9480244F
:1043F000009751F0998388831B830A8381E0DF91C2
:10440000CF911F910F91089580E0F9CFCF93DF9363
:10441000EC0188819981892B49F08A819B818617DB
:10442000970720F081E0DF91CF910895CE010E949F
:10443000EC218823C1F38C819D81892B99F7E88138
:10444000F9811082EFCFEF92FF920F931F93CF93DA
:10445000DF93EC017B018A01BA010E9406228111DF
:104460000BC0CE010E94DA21CE01DF91CF911F91C6
:104470000F91FF90EF9008951D830C83B701888101
:1044800099810E946D25F0CFFC0111821082138268
:104490001282158214826115710551F0FB010190A1
:1044A0000020E9F73197AF01461B570B0C942322EC
:1044B0000895FB0101900020E9F73197AF01461BF9
:1044C000570B0C942322CF93DF93EC0161157105F8
:1044D00031F00E945922CE01DF91CF9108950E94C0
:1044E000DA21F9CFFC01248135816217730748F482
:1044F00080819181009729F0860F971FFC018081B0
:10450000089580E00895AF92BF92CF92DF92EF922C
:10451000FF920F931F93CF93DF935C016B017A019E
:1045200089012417350720F48F2D7901042F182FC6
:1045300067E074E0C5010E944422D6011496CD9133
:10454000DC91EC16FD06C8F40C171D0708F4E80111
:10455000D601ED91FC911197EC0FFD1F1081108297
:104560006D917C916E0D7F1DC5010E946322F60145
:1045700080819181C80FD91F1883C501DF91CF9128
:104580001F910F91FF90EF90DF90CF90BF90AF9071
:104590000895FC0180819181009711F00C943D25D4
:1045A00060E070E0CB01089508950E94F41D0E9420
:1045B000D4220E94AD0CCCEFDEE10E94D1072097FF
:1045C000E1F30E94FC1EF9CF0895991B79E004C025
:1045D000991F961708F0961B881F7A95C9F7809542
:1045E000089597FB072E16F4009407D077FD09D0A5
:1045F0000E94382307FC05D03EF4909581959F4F8B
:104600000895709561957F4F0895A1E21A2EAA1B17
:10461000BB1BFD010DC0AA1FBB1FEE1FFF1FA21772
:10462000B307E407F50720F0A21BB30BE40BF50B6F
:10463000661F771F881F991F1A9469F760957095F8
:10464000809590959B01AC01BD01CF010895EE0FBF
:10465000FF1F0590F491E02D09940E944C23A59F23
:10466000900DB49F900DA49F800D911D112408956D
:10467000AA1BBB1B51E107C0AA1FBB1FA617B70788
:1046800010F0A61BB70B881F991F5A95A9F78095A4
:104690009095BC01CD010895A29FB001B39FC001C8
:1046A000A39F700D811D1124911DB29F700D811D5E
:1046B0001124911D08950F931F93CF93DF938230A0
:1046C000910510F482E090E0E0910406F091050677
:1046D00030E020E0B0E0A0E0309799F421153105FA
:1046E00009F44AC0281B390B24303105D8F58A81DA
:1046F0009B816115710589F1FB0193838283FE0122
:1047000011C0408151810281138148175907E0F09F
:104710004817590799F4109761F012960C93129765
:1047200013961C933296CF01DF91CF911F910F9179
:1047300008950093040610930506F4CF2115310562
:1047400051F04217530738F0A901DB019A01BD016E
:10475000DF01F801C1CFEF01F9CF909305068093F7
:104760000406CDCFFE01E20FF31F819391932250F7
:10477000310939832883D7CF20910206309103066F
:10478000232B41F4209162003091630030930306A3
:1047900020930206209160003091610021153105BF
:1047A00041F42DB73EB74091640050916500241B41
:1047B000350BE0910206F0910306E217F307A0F42F
:1047C0002E1B3F0B2817390778F0AC014E5F5F4F67
:1047D0002417350748F04E0F5F1F50930306409390
:1047E0000206819391939FCFF0E0E0E09CCFCF93BE
:1047F000DF930097E9F0FC01329713821282A091B7
:104800000406B0910506ED0130E020E01097A1F418
:1048100020813181820F931F20910206309103067F
:104820002817390709F061C0F0930306E0930206E8
:10483000DF91CF910895EA01CE17DF07E8F54A81AD
:104840005B819E0141155105B1F7E901FB83EA83C4
:1048500049915991C40FD51FEC17FD0761F4808170
:1048600091810296840F951FE90199838883828143
:1048700093819B838A83F0E0E0E012968D919C9176
:1048800013970097B9F52D913C911197CD010296A0
:10489000820F931F209102063091030628173907D3
:1048A00039F6309751F51092050610920406B09330
:1048B0000306A0930206BCCFD383C28340815181FB
:1048C000840F951FC817D90761F44E5F5F4F888129
:1048D0009981480F591F518340838A819B8193831B
:1048E00082832115310509F0B0CFF0930506E093DE
:1048F00004069ECFFD01DC01C0CF13821282D7CF08
:10490000B0E0A0E0E6E8F4E20C94E1258C01009729
:1049100051F4CB010E945B238C01C801CDB7DEB7F7
:10492000E0E10C94FD25FC01E60FF71F9C012250ED
:104930003109E217F30708F49DC0D901CD91DC914C
:104940001197C617D70798F0C530D10530F3CE01BF
:1049500004978617970708F3C61BD70B2297C193B6
:10496000D1936D937C93CF010E94F723D6CF5B0147
:10497000AC1ABD0A4C018C0E9D1EA0910406B0918C
:104980000506512C412CF12CE12C109731F580912A
:104990000206909103068815990509F05CC0461639
:1049A000570608F058C08091600090916100009710
:1049B00041F48DB79EB74091640050916500841B0F
:1049C000950BE817F90708F055C0F0930306E0933C
:1049D0000206F90171836083A0CF8D919C9111979C
:1049E00012966C90129713967C901397A815B905A0
:1049F00059F56C0142E0C40ED11CCA14DB0420F14D
:104A0000AC014A195B09DA011296159780F06282AF
:104A1000738251834083D9016D937C93E114F10437
:104A200071F0D7011396FC93EE93129776CF2296EE
:104A30008C0F9D1FF90191838083F301EFCFF093D9
:104A40000506E093040669CF4816590608F42C01C0
:104A50007D01D3019ACFCB010E945B237C0100979B
:104A600049F0AE01B8010E946425C8010E94F723F5
:104A7000870153CF10E000E050CF1F93FC0199272E
:104A80008827BC01E89411911032E9F3193010F035
:104A90001E30C8F31B3251F01D3249F4689406C031
:104AA0000E948325610F711D811D911D119110536D
:104AB0001A30B0F33EF490958095709561957F4FD4
:104AC0008F4F9F4F1F910895FB01DC0102C00190A1
:104AD0000D9241505040D8F70895FB01DC01019040
:104AE0000D920020E1F70895BB272A3051F4992355
:104AF00042F4BDE290958095709561957F4F8F4F00
:104B00009F4F0C949925592F482F372F262F660F2A
:104B1000771F881F991F660F771F881F991F620FC5
:104B2000731F841F951F660F771F881F991F089595
:104B3000BB27FA01A62F6217710581059105330B7A
:104B400030FB66F0AA27660F771F881F991FAA1FE0
:104B5000A21710F0A21B63953850A9F7A05DAA33E5
:104B600008F0A95DA19336F7B111B1931082CA0183
:104B70000C94BA25DC01FC01672F71917723E1F7D2
:104B8000329704C07C916D9370836291AE17BF071A
:104B9000C8F30895E199FECF9FBB8EBBE09A992799
:104BA0008DB30895262FE199FECF9FBB8EBB2DBB01
:104BB0000FB6F894E29AE19A0FBE019608952F92EB
:104BC0003F924F925F926F927F928F929F92AF929D
:104BD000BF92CF92DF92EF92FF920F931F93CF93EA
:104BE000DF93CDB7DEB7CA1BDB0B0FB6F894DEBF81
:104BF0000FBECDBF09942A88398848885F846E84A7
:104C00007D848C849B84AA84B984C884DF80EE80F0
:104C1000FD800C811B81AA81B981CE0FD11D0FB6F9
:104C2000F894DEBF0FBECDBFED01089512E0C5E7D9
:104C3000D2E004C0FE010E9427232196C637D10787
:104C4000C9F7F894FFCF000006068000134453789C
:104C50004E414D2E444154004453784E79792E44B0
:104C6000534B00FF0D0A494F533A205344206572BD
:104C7000726F7220004449534B5F455252004E4FB1
:104C8000545F5245414459004E4F5F46494C4500E0
:104C90004E4F545F4F50454E4544004E4F545F4574
:104CA0004E41424C4544004E4F5F46494C45535996
:104CB0005354454D00554E4B4E4F574E00206F6E8E
:104CC00020004D4F554E54004F50454E0052454127
:104CD00044005752495445005345454B00206F70DE
:104CE00065726174696F6E00202D2046696C653AAB
:104CF00020004469736B20536574200031373A30CB
:104D0000343A3133004E6F76203130203230323039
:104D1000002F000A494F533A20525443206D616ED0
:104D200075616C2073657474696E673A000A50721D
:104D300065737320542F5520746F20696E637265FC
:104D40006D656E74202B31302F2B31206F72204314
:104D50005220746F206163636570740059656172DD
:104D6000202D3E20004D6F6E7468202D3E200020C7
:104D700020202020202020202020202000204461EE
:104D800079202D3E2000486F757273202D3E200043
:104D90004D696E75746573202D3E20005365636FF9
:104DA0006E6473202D3E2000202E2E2E646F6E65C3
:104DB00020202020202000494F533A2052544320E5
:104DC000646174652F74696D6520757064617465C4
:104DD00064202800494F533A20466F756E64205274
:104DE000544320445333323331204D6F64756C6526
:104DF000202800494F533A20525443204453333221
:104E000033312074656D70657261747572652073DD
:104E1000656E736F723A20004300494F533A205237
:104E2000544320636C6F636B206661696C757265B7
:104E300021000A446F20796F752077616E742073AA
:104E400065742052544320617420494F5320636F8E
:104E50006D70696C652074696D65202800293F209C
:104E60005B592F4E5D203E00494F533A2052544328
:104E70002073657420617420636F6D70696C6520A8
:104E800074696D65202D204E6F773A20003400380C
:104E9000004D487A004F4E004F4646004D487A2953
:104EA0000020373A20546F67676C652043502F4DC0
:104EB000204175746F6578656320282D3E00203889
:104EC0003A204368616E6765200020393A204368C4
:104ED000616E6765205254432074696D652F64616B
:104EE000746500456E74657220796F757220636811
:104EF0006F696365203E0020204F6B000D202D3E22
:104F000000424153494334372E42494E00464F52E6
:104F1000544831332E42494E0043504D32322E42D6
:104F2000494E0051504D4C44522E42494E00435080
:104F30004D4C44522E434F4D00554353444C445224
:104F40002E42494E00434F532E42494E0041555484
:104F50004F424F4F542E42494E00494F533A204C36
:104F60006F6164696E6720626F6F742070726F6723
:104F700072616D202800292E2E2E00494F533A20B1
:104F80004C6F6164696E6720626F6F742070726F1E
:104F90006772616D2E2E2E0020446F6E6500494FA2
:104FA000533A205A38302069732072756E6E696EDC
:104FB000672066726F6D206E6F77001F1C1F1E1FAB
:104FC0001E1F1F1E1F1E1F00000000281A571AC593
:104FD00019F119C819CF19E219000000004B1F7808
:0E4FE00020ED1E2B1FBF1ED91ECB1E0D0A007A
:107E000001C0B2C011248FE598E09EBF8DBF84B73A
:107E1000882361F0982F9A70923041F081FF02C060
:107E200097EF94BF282E80E0BAD0EAC085E08EBDDF
:107E300082E08BB988E18AB986E880BD80E189B9A2
:107E40008EE0ADD0B89A84E020E33CEF44E051E00E
:107E50003DBD2CBD48BF08B602FEFDCF98B39527A7
:107E600098BBA8955F9902C0815091F791D0813459
:107E700079F48ED0182F97D0123811F480E004C016
:107E800088E0113809F083E07FD080E17DD0EECF2B
:107E9000823419F484E18FD0F8CF853411F485E071
:107EA000FACF853541F474D0C82F72D0D82FCC0FBB
:107EB000DD1F79D0EACF863519F484E07CD0DECF9F
:107EC000843699F565D064D0182F62D0D82E012F52
:107ED00090E6E92EF12C57018FEFA81AB80A58D076
:107EE000F701808301507501B1F75DD0F5E4DF1231
:107EF00001C0FFCF50E040E063E0CE0135D07E010D
:107F000080E6C82ED12CF601419151916F0161E0BC
:107F1000C7012AD0F2E0EF0EF11C1250A1F750E099
:107F200040E065E0CE0120D0B0CF843771F430D08E
:107F30002FD0F82E2DD037D08E01F80185918F01EA
:107F400023D0FA94F110F9CFA0CF853739F42BD094
:107F50008EE11AD085E918D082E096CF813509F0FC
:107F6000A8CF88E01CD0A5CFFC010A0167BFE89527
:107F7000112407B600FCFDCF667029F0452B19F4DB
:107F800081E187BFE89508955D9BFECF8CB9089588
:107F90005F9BFECF5C9901C0A8958CB1089598E1D4
:107FA00091BD81BD0895F4DF803219F088E0F7DFDC
:107FB000FFCF84E1E9CFCF93C82FEADFC150E9F7C3
:047FC000CF91F1CF9D
:027FFE00000879
:00000001FF
